:020000040800F2
:10000000C0CB0020D1020008C32D0008BB2D000882
:10001000BF2D0008DD18000889300008000000002E
:10002000000000000000000000000000390200088D
:10003000E1180008000000007D020008ED2D000816
:10004000EB020008EB020008EB020008EB020008DC
:10005000EB020008EB020008EB020008EB020008CC
:10006000EB020008EB020008EB020008EB020008BC
:10007000EB020008EB020008EB020008EB020008AC
:10008000EB020008EB020008EB020008EB0200089C
:10009000EB020008EB020008EB020008EB0200088C
:1000A000EB020008EB020008EB020008EB0200087C
:1000B000EB020008EB020008EB020008EB0200086C
:1000C000EB020008EB020008EB020008EB0200085C
:1000D000EB02000865300008EB020008EB020008A4
:1000E000EB020008EB020008EB020008EB0200083C
:1000F000EB020008EB020008EB020008EB0200082C
:10010000EB020008EB020008EB020008EB0200081B
:10011000EB020008EB020008052E0008EB020008C5
:10012000EB020008EB020008EB020008EB020008FB
:1001300000F002F800F070F80AA090E8000C824489
:100140008344AAF10107DA4501D100F065F8AFF266
:10015000090EBAE80F0013F0010F18BFFB1A43F0A5
:1001600001031847D04F0400F04F04000A444FF039
:10017000000C10F8013B13F0070408BF10F8014B06
:100180001D1108BF10F8015B641E05D010F8016B4B
:10019000641E01F8016BF9D113F0080F1EBF10F8AF
:1001A000014BAD1C0C1B09D16D1E58BF01F801CBD2
:1001B000FAD505E014F8016B01F8016B6D1EF9D555
:1001C0009142D6D37047000000230024002500266A
:1001D000103A28BF78C1FBD8520728BF30C148BFAA
:1001E0000B607047662938F06E81642900F05281F7
:1001F000782900F08B81732900F0838600207047F6
:100200001FB500F0B7FE04000020002137F0FCFB12
:10021000E0601FBD10B510BD00F06AFF1146FFF78A
:10022000EFFF2EF01DFF00F088FF03B4FFF7F2FF91
:1002300003BC05F077F80000224B19680868B0E8A5
:10024000F00F80F30988BFF36F8F4FF0000080F349
:1002500011884EF00D0E704700000000064800683F
:10026000006880F3088862B661B6BFF34F8FBFF3B2
:100270006F8F00DF00BF00BF08ED00E0EFF30980E3
:10028000BFF36F8F0F4B1A6820E9F00F106008B5AD
:100290004FF0500080F31188BFF34F8FBFF36F8F83
:1002A00036F036FC4FF0000080F31188BDE80840BE
:1002B00019680868B0E8F00F80F30988BFF36F8F02
:1002C000704700BF98000020EFF3058070470000E2
:1002D0000948804709480047FEE7FEE7FEE7FEE7DA
:1002E000FEE7FEE7FEE7FEE7FEE7FEE70448054916
:1002F000054A064B70470000012E00083101000836
:10030000C0C50020C0CB0020C0C70020C0C700204F
:10031000704753EA020C00F069802DE9F04B4FF072
:100320000006002B1FBFB3FA83F503FA05F424FA85
:1003300005F65E4012BF1643B2FA82F502FA05F4E2
:10034000C5F120051EBF22FA05FC44EA0C04203545
:1003500056EA044C4FEA144418BF641C4FF00008DE
:100360004FF00009904271EB030C39D3002919BFFB
:10037000B1FA81F701FA07F6B0FA80F700FA07F64A
:10038000C7F120071EBF20FA07FC46EA0C062037FB
:10039000B6FBF4FCA7EB0507103F07F01F0BCBF1F2
:1003A00020060CFA0BFB2CFA06F644BFB3460026D7
:1003B000202FA4BF5E464FF0000B5BEA060C08BF7F
:1003C0004FF0010B19EB0B09ABFB027C48EB060865
:1003D000C01B06FB02CC0BFB03CC71EB0C01C1E78D
:1003E0000B46024641464846BDE8F08B13B54FF038
:1003F00000004FF00001AFF30080BDE81C407047E3
:100400000FB4044910B503AA029800F07FFD10BC98
:100410005DF814FB140000200FB41CB5074B06AAAE
:100420007B4469460090059800F041FD0020694634
:1004300000F050FD1CBC5DF814FB0000B10A000088
:1004400070B50C460546012A05D02878800600D5EF
:10045000EA69002302E0012305E05B1C934202D21B
:10046000E05C0028F9D1A869E618C01AA861286ADA
:10047000184428622846AFF3008004E0D5E9012142
:1004800014F8010B9047B442F8D32846AFF300802C
:1004900070BD00002DE9F041064600241068752962
:1004A000314616A510D0AFF30080002802DA404292
:1004B00013A507E031688A0701D512A502E04907B4
:1004C00004D511A5012401E0AFF3008000210A2228
:1004D00006F1240709E0B0FBF2FCB0FBF2F302FBEB
:1004E0001C00303078541846491C0028F3D12346AC
:1004F0002A463046BDE8F04100F06BBA000000002B
:100500002D0000002B0000002000000070B5044604
:100510000D4621461068AFF300802188090502D5F9
:100520000F4A7A4402E00E4A7A440E32002104F166
:10053000240305E000F00F060009965D5E54491C97
:100540000028F7D120780023000704D5702D02D0B1
:1005500009B1022311322046BDE8704000F039BADB
:10056000F64504002DE9F05F894604464FF0000A85
:10057000DFF874B1FB44C0F820A02046E16888474A
:10058000002874D0252806D0D4E901219047206A9C
:10059000401C2062F1E700265F462046E16888475C
:1005A0002028054607DB312D05D2781910F8200CDC
:1005B00008B10643F1E7B00701D526F00406C4F8F8
:1005C0001CA00027C4F818A02A2D09D0284602F044
:1005D000ABFD38B304EB8708303DC8F8185019E07C
:1005E00059F8041B204604EB87029161E1688847B3
:1005F000012F054618D1E069002820DA26F02006F0
:100600001DE0D8F8180000EB800005EB4000303802
:10061000C8F818002046E1688847054602F084FDC6
:100620000028EED1012F0AD02E2D08D12046E168F6
:1006300088477F1C0546022F46F02006C4DBA069D0
:10064000002803DA404246F00106A061F00701D01D
:1006500026F010066C2D0BD0682D09D04C2D39D00A
:100660006A2D35D0742D35D07A2D33D016E038E090
:10067000E1682F4620468847B842054609D16C2FCD
:1006800026D04FF48060E16806432046884705463F
:1006900004E06C2F1AD04FF4807006430DB3A5F11F
:1006A0004100192802D8203546F400664A462946FA
:1006B000204626604E46FFF795FD80B101280BD0FD
:1006C000F61D26F0070000F1080956E74020E4E790
:1006D0008020D8E70020D6E706F104094DE7284638
:1006E00052E7206ABDE8F09FCC45040040EA0103D0
:1006F000024630B59B0710D14FF0013400E008C22C
:1007000008C91D1B9D4315EAC41FF8D013F0FF0153
:1007100002F8011B0DD01B0AF8E711F8013B002B72
:1007200002F8013B05D011F8013B002B02F8013B18
:10073000F3D130BD10B5431C02E010F8011B71B1BC
:100740008107FAD14FF0013202C88C1A8C4314EAA7
:10075000C211F9D0C01A0A0603D0C01E10BDC01ABB
:1007600010BD0A0401D0801E10BD0902FCD0401E3D
:1007700010BD032A40F2308010F0030C00F0158009
:1007800011F8013BBCF1020F624498BF11F801CB94
:1007900000F8013B38BF11F8013BA2F1040298BFF9
:1007A00000F801CB38BF00F8013B11F0030300F063
:1007B0002580083AC0F0088051F8043B083A51F807
:1007C00004CBA0E80810F5E7121D5CBF51F8043B0C
:1007D00040F8043BAFF30080D20724BF11F8013B7F
:1007E00011F801CB48BF11F8012B24BF00F8013BE1
:1007F00000F801CB48BF00F8012B704710B5203A34
:10080000C0F00B80B1E81850203AA0E81850B1E8C9
:100810001850A0E81850BFF4F5AF5FEA027C24BF7F
:10082000B1E81850A0E8185044BF18C918C0BDE876
:1008300010405FEA827C24BF51F8043B40F8043B3F
:1008400008BF7047D20728BF31F8023B48BF11F8F4
:10085000012B28BF20F8023B48BF00F8012B70474E
:1008600002F0FF0343EA032242EA024200F062BBC5
:100870004FF0000200B5134694469646203922BF39
:10088000A0E80C50A0E80C50B1F12001BFF4F7AF84
:10089000090728BFA0E80C5048BF0CC05DF804EB66
:1008A000890028BF40F8042B08BF704748BF20F8D4
:1008B000022B11F0804F18BF00F8012B7047000089
:1008C0004FF0013C50F8042B51F8043B9A4221D1DF
:1008D000A2EB0C03934313EACC1317D150F8042B6B
:1008E00051F8043B9A4215D1A2EB0C03934313EA4F
:1008F000CC130BD150F8042B51F8043B9A4209D188
:10090000A2EB0C03934313EACC13DBD04FF00000AF
:10091000704700BFD01A01BAB1FA81F101F0180195
:1009200022FA01F0CB40C1F12001DBB2C0B2C01A03
:100930002CFA01F3D11A914311EAC311E6D17047A1
:10094000704770477047704730B5B0F10A024FEA00
:10095000900E71F100034EEA817EB0EB0E0061EB68
:1009600091014FEA101E4EEA017E10EB0E0041EBA2
:1009700011114FEA102E4EEA016E10EB0E0041EB02
:1009800011214FEA104E4EEA014E10EB0E0041EBE2
:100990001141401841F100014FEAD00040EA417096
:1009A0004FEAD10110EB80054FEA810444EA9074CC
:1009B00044EB01046D1944EB0404521BA3414FF0B6
:1009C000000348BF0A3200D530BD401C41F1000190
:1009D00030BD2DE9F0470D4699469246044600F198
:1009E00024080168880604D5E06921F0100121601F
:1009F00000E00120A84201DD471B00E00027A169BB
:100A00007A1902EB0900081AA0612078C00602D406
:100A10002046AFF30080002608E0D4E901211AF84F
:100A200006009047206A401C761C20624E45F4DB8D
:100A30002078C0060AD52046AFF3008006E0D4E94E
:100A4000012130209047206A401C2062381EA7F107
:100A50000107F4DC07E0D4E9012118F8050090470C
:100A6000206A401C2062281EA5F10105F3DC204607
:100A7000AFF300802078000602D50220BDE8F087A1
:100A80000120FBE770472DE9FF4F0C461E464FF053
:100A9000FF378BB0D2E90001DDF860800A908A460A
:100AA000C1F30A5505B93D46002108464FF0000044
:100AB000BAF1000F00F4400005DA00EB80004FF4BB
:100AC000400101EA50004FEA9059B9F1010F00DDF1
:100AD000B9460A9850EA4A000ED044F61050A5F2E2
:100AE000FF3545432F14B8F1000F1ED07542291E63
:100AF0001EDDC9F100021CE0B8F1010F4FF000004B
:100B000001D0302103E0F24305E02154401CB04203
:100B1000FBDB30460022002121540B99C1F80880EC
:100B2000C1E900200FB0BDE8F08FBD1B6D1CDEE7F2
:100B30004A4600DA694206A800F060FA06AB93E87C
:100B4000070003AB83E8070050460A9900F0FEFA5D
:100B50008DE80700A0F500501F3800900398002D85
:100B60000ADD42F21F014A460844002303A903900C
:100B7000684600F067FD09E0A0F500504A461F38BE
:100B8000002303A90390684600F071FD8DE807007B
:100B90000004000C03D04FF0FF30410800E0104685
:100BA000B8F1000F03D00022009215461EE0751E1A
:100BB00005D4FFF7C9FE303262556D1EF9D5B34634
:100BC0000122084302D000227F1C04E02078302854
:100BD00001D100227F1E002A099784D01DE0112D2B
:100BE00007DAFFF7B1FE303262556D1C50EA0102A0
:100BF000F5D1084302D00098C8B10EE00021681E6C
:100C000005E0235C625C63542254401E491C81420F
:100C1000F7DBAB46A81B401E0990002004F80B0030
:100C20000B98099AC0F80880C0E9002B7AE71126D2
:100C30004FF0000857E72DE9F04F88460446D21DD3
:100C400022F0070191B0D1E90001CDE90A0102F0DB
:100C50001DFA02460B98C00F01D02D2007E0206836
:100C6000810701D52B2002E0202101EAC000032AE0
:100C7000099001D0072A05DB03464146204600F0D3
:100C80007DF90BE12078800601D5E06900E00620BF
:100C9000B8F1650F814606D0B8F1660F18D0B8F1EB
:100CA000670F70D131E00020B9F1110F009001DB26
:100CB000112301E009F101030AAA01A90CA8FFF719
:100CC000E2FEDDE90C70002609F10105834647E0EC
:100CD00001204B4600904FF000470AAA01A90CA83A
:100CE000FFF7D1FEDDE90DB00C995D46002610B985
:100CF00009F101000D18B9EB050003D4C0F1FF366E
:100D000009F10105A5EB09002BE0B9F1010F01DAAA
:100D10004FF001090020B9F1110F0090484601DDA4
:100D2000112300E003460AAA01A90CA8FFF7ABFEB5
:100D3000DDE90C704D4600268346207800070AD472
:100D4000AB4500DA5D4601A8012D04DD411911F81B
:100D5000011C302907D04F4502DA17F1040F04DADD
:100D6000012082460FE06D1EEEE7002F02DCED1B36
:100D70003E4403E0781CA84200DD7D1CB81B00F156
:100D8000010A4FF000472078000703D4AA4501DB91
:100D90004FF0FF3A0021B7F1004F0DF143088DF8F5
:100DA000431024D002202B23002F01DA7F422D2371
:100DB0000A21021EA0F1010000DC5FB197FBF1FCEB
:100DC00097FBF1F201FB1C7C17460CF1300C08F884
:100DD00001CDEEE7A8F1010003702188090501D5D6
:100DE000452100E06521A0F1010800F8011C0998E7
:100DF0000FA9A1EB0807FF1D00B10120411901EB6C
:100E0000EA70A1693844081A401EA0612078C00623
:100E100002D42046AFF30080099828B1D4E901211B
:100E20009047206A401C20622078C00622D52046C8
:100E3000AFF300801EE0002E04DBB34502DD01A805
:100E4000805D00E03020D4E901219047206A401CF9
:100E50002062761CAAF101005FEA000A0AD100F0C4
:100E600089F8C0680168405CD4E901219047206A94
:100E7000401C2062281EA5F10105DCDC07E0D4E956
:100E8000012118F8010B9047206A401C2062381E8F
:100E9000A7F10107F3DC2046AFF30080032011B077
:100EA00041E6000001694A1C02610878704700B5FC
:100EB0008FB0CDE901310021059105497944CDE993
:100EC000031011466846FFF74DFB0FB000BD000050
:100ED000E5FFFFFF0A6802F8010B0A60704710B5D2
:100EE000436913B1AFF3008001E0FFF7A9FA0120D5
:100EF00010BD127800F124010A7000224A7001220C
:100F0000EDE711684FF0FF32E9E70000074B70B5DD
:100F10000D467B44FFF7CBFF0446284600F0E0F87F
:100F200010B14FF0FF3070BD204670BDC309010005
:100F30004FF000020429C0F0128010F0030C3FF4BF
:100F400099ACCCF1040CBCF1020F18BF00F8012BD6
:100F5000A8BF20F8022BA1EB0C01FFF78BBC5FEAC6
:100F6000C17C24BF00F8012B00F8012B48BF00F81A
:100F7000012B7047004870477CC500202DE9F041E7
:100F80001F46044603260168072A01F4006004DBBB
:100F900008B116A505E016A503E008B115A500E007
:100FA00015A521F010002060A069C01EA0610FB13E
:100FB000401EA0612046AFF300804FB1D4E901216B
:100FC00038469047206A401C2062C01C206206E020
:100FD000206AFAE7D4E9012115F8010B9047761E43
:100FE000F8D22046AFF30080BDE8F0814E414E00BC
:100FF0006E616E00494E4600696E66002DE9F0474D
:10100000814616468AB0354878440DC88DE80D00F3
:1010100032487844801C03AC0DC884E80D0041F6CA
:101020009B300844372190FBF1F290FBF1F5A5F1DC
:10103000800501FB12041B3C02D56442012000E044
:101040000020DFF898A080460027FA44AAF1BE0AE3
:101050000EE0E0070AD03246684607EB470101235D
:101060000AEB810100F003FB8DE8070064107F1C90
:10107000002CEED1194F7F44AE3F19E0E80715D0A0
:1010800007EB04100DF1180A90E80E008AE80E0034
:10109000C068F04201D1981908903246012306A990
:1010A00003A800F0E4FA03AB83E807006D10641CAA
:1010B000002DE3D14FF0010332466946B8F1000F2D
:1010C00003A802D000F0BEFA01E000F0D0FAC9E9AE
:1010D0000001C9F808200AB0BDE8F087C83B040049
:1010E000007B00F080007047004870475CC500201E
:1010F0007546FFF7F9FFAE4605006946534620F0F6
:101100000700854618B020B5FFF7F0F8BDE820408D
:101110004FF000064FF000074FF000084FF0000BB3
:1011200021F00701AC46ACE8C009ACE8C009ACE866
:10113000C009ACE8C0098D46704710B50446AFF34E
:1011400000802046BDE81040FFF76FB85FEA400C12
:1011500008BF91F0000F4FEA8C234FEAC12243EA07
:1011600051514FEA1C5018BF00F5F0404FEA3000D3
:1011700018BF41F000415FEA6C5C00F02980BCF1CF
:10118000FF3F08BF40F080407047130C06BF1204B9
:101190004FF0100C4FF0000C130E04BF12020CF1B4
:1011A000080C130F04BF12010CF1040C930F04BFC1
:1011B00092000CF1020CD30F04BF52000CF1010C91
:1011C00011464FF00002A0F11F00A0EB0C00704789
:1011D00011F0004F08BF704731F000413FF4D5AF28
:1011E0000B0C06BF09044FF0100C4FF0000C0B0E57
:1011F00004BF09020CF1080C0B0F04BF09010CF12C
:10120000040C8B0F04BF89000CF1020CCB0F04BF40
:1012100049000CF1010CCCF12003A0EB0C0022FAE8
:1012200003F302FA0CF241EA030100F101007047F6
:1012300020F07F4C80EA030023F07F47ACEB0703EC
:1012400003F57C5300F0004003F1FF032DE98049D2
:101250004FEA154B09B44FEA144325EA0B4E24EA32
:1012600003480FF2042606EB132749083E785FEA8D
:10127000320203FB0667C7F5000707FB06F64FEAD5
:1012800054374FEAD64606F1020607FB066CCCF14E
:10129000005C4FEA1C472CEA074C07FB06F40CFBEA
:1012A00006F504EB15464FEA961634BF00204FF0C2
:1012B00000404FEAD13706FB07FC4FEA1C4C0CFB01
:1012C0000BF7D21B03FB0CF761EB07010CFB0EF7CE
:1012D000B0EB074072EB17420CFB08F734BFA2EBF0
:1012E0000742B2EB074261EB17414FEA0C444FEA69
:1012F000910706FB07FC4FEA1C4C0CFB0BF7B0EB0D
:10130000C74072EB573203FB0CF734BFA2EBC74266
:10131000B2EBC74261EB57310CFB0EF7B0EBC700E5
:1013200072EB57720CFB08F734BFA2EBC702B2EBAB
:10133000C70261EB5771039F4FEA816141EA921145
:1013400004EBCC044FEAD1374FEA826206FB07FC7C
:1013500042EA90124FEA80604FEA1C4C0CFB0BF7FC
:10136000D21B03FB0CF761EB07010CFB0EF7B0EB94
:10137000074072EB17420CFB08F734BFA2EB0742A1
:10138000B2EB074261EB17414FEA8C554FEA9107E8
:1013900004EB9C2406FB07FC4FEA1C4C0CFB0BF7F0
:1013A000B0EBC74072EB573203FB0CF734BFA2EB34
:1013B000C742B2EBC74261EB57310CFB0EF7B0EB03
:1013C000C70072EB57720CFB08F734BFA2EBC702E1
:1013D000B2EBC70261EB577115EB4C254FEA816107
:1013E00041EA92114FEA82624FEAD13742EA901203
:1013F00006FB07FC44F100044FEA80604FEA1C4CF6
:101400000CFB0BF7D21B03FB0CF761EB07010CFB8A
:101410000EF7B0EB074072EB17420CFB08F734BF36
:10142000A2EB0742B2EB074261EB174115EB1C152B
:101430004FEA813141EA92414FEA823242EA9042D8
:101440004FEA80304FEA0C7644F1000448EA034347
:101450004EEA0B484FF0000EB2EB080C71EB03079D
:1014600024BF624639464EEB0E0E4FF0000B0018BB
:10147000524149414BEB0B0BB2EB080C71EB0307EC
:101480007BF1000B24BF624639464EEB0E0E4FF047
:10149000000B0018524149414BEB0B0BB2EB080C0F
:1014A00071EB03077BF1000B24BF624639464EEB1C
:1014B0000E0E51EA020718BF46F0010616EB0E7633
:1014C00055F1000254F1000103D5BDE88901BDE8E2
:1014D0000088BDE88901BDE80048B619524141EBDA
:1014E0000101A3F10103704780807F7E7D7C7B7AC0
:1014F0007978777676757473727171706F6E6E6DC0
:101500006C6C6B6A6A696868676666656464636365
:1015100062616160605F5F5E5E5D5D5C5C5B5B5AEB
:101520005A59595858575756565555555454535358
:1015300052525251515050504F4F4F4E4E4D4D4DB3
:101540004C4C4C4B4B4B4A4A4A49494948484847FE
:10155000474747464646454545444444444343433C
:101560004342424242414141002B9C4630D47700E5
:101570002BD01CB54FEA370703B44FF010004FF0E3
:101580001001BAF1000F06D0BCF1000FDCBF40F033
:10159000080040F008014FF000000FBCBDE810400B
:1015A0000BF1010BBBF1010F08BF5FEA170722BF68
:1015B00012F1010211F101014FF0004143F100036A
:1015C00000F0004043EA00007047F9D35708D0E725
:1015D00046EA064613F1400F4FEA16461FDD13F1A7
:1015E000200FDFBF16430A46002120335B42BED0E6
:1015F000C3F1200746EA064602FA07F74FEA164605
:1016000046EA0706C3F1200722FA03F201FA07F7B8
:1016100021FA03F14FF0000342EA0702A7E746EA86
:10162000020646EA06464FEA164646EA0106BCBFEF
:1016300046EA0646360C4FF000034FF000024FF02A
:10164000000194E72DE9804C9A46934670B491E8E6
:10165000380007C831EA400C48BF34EA430C03D5D0
:10166000FFF7E6FDFFF780FFF0BCBDE8008C2DE939
:10167000804C9A46934670B491E8380007C810F041
:10168000804F08BF13F0804F03D100F005F8FFF73B
:101690006BFFF0BCBDE8008C20F07F4780EA0300C0
:1016A00023F07F4C07EB0C03A3F57C5300F00040C4
:1016B000A3F1FE0392F0000F00F0B38095F0000F4D
:1016C00000F077802DE901494FEA11404FEA1446B6
:1016D00021EA004800FB06FC24EA064708FB06F660
:1016E00007FB08F800FB07F718EB06484CEB164C15
:1016F0004FEA124B18EB07484FEA15464CEB1740E0
:1017000022EA0B4E0BFB06FC25EA06470EFB06F60B
:1017100007FB0EFE0BFB07F71EEB064E4CEB164CC1
:101720004FF000061EEB074E4CEB174B18EB0B0867
:1017300040F1000018EB0E0B58EB000840F10000E0
:101740008F1A4FF000013CBFC943661B14BFB5EBB5
:10175000040C00213CBFC943F61B4FEA17444EEA74
:101760008E0E27EA04454FEA1C4704FB07622CEA69
:10177000074C05FB07F70CFB05F604FB0CFC16EB0E
:10178000074642EB174216EB0C4642EB1C421BEBA2
:10179000060658EB0202414146EA9E0601D5BDE825
:1017A0000189B619524141EB0101A3F10103BDE8E2
:1017B00001894FEA14454FEA114724EA054621EA18
:1017C000074C05FB07F406FB07F70CFB06F105FBCE
:1017D0000CFC11EB074144EB17444FEA124711EBA5
:1017E0000C4144EB1C4422EA074C05FB07F206FBC4
:1017F00007F70CFB06F605FB0CFC16EB074642EB65
:10180000174216EB0C4642EB1C456A1854F10001D6
:1018100048BF7047B619524141EB0101A3F10103E2
:10182000704795F0000F37D04FEA11424FEA144746
:1018300021EA024624EA074C02FB07F106FB07F700
:101840000CFB06F402FB0CFC14EB074441EB1741C4
:101850004FEA154714EB0C4441EB1C4125EA074CB9
:1018600002FB07F506FB07F70CFB06F602FB0CFC78
:1018700016EB074645EB174516EB0C4645EB1C42AD
:10188000121951F1000148BF7047B619524141EB9E
:101890000101A3F1010370474FEA14454FEA1147D4
:1018A00024EA054621EA074C05FB07F106FB07F78A
:1018B0000CFB06F24FF0000605FB0CFC12EB074296
:1018C00041EB174112EB0C4251EB1C4148BF7047F2
:1018D000921841EB0101A3F10103704700BFFEE73D
:1018E0007047000070B50446B3F5804F13D1D1E9BD
:1018F000000540EA05108D6840EA05208D692843FF
:101900008D8940EA054054F82250064E3540284360
:1019100044F8220003E06FF0704044F822000020F9
:1019200070BD00000000F0CF70B50246086852F8A4
:10193000200020F001000E6842F826008868082880
:1019400001D1402300E00023486818438E683043EB
:10195000CE6830430E6930434E693043CE69304320
:101960000E6A30434E6A30438E6A3043CE6A30434B
:101970000E6B40EA060488690443486B0443074D34
:1019800045F4806545F4E025086852F82000A84336
:1019900020430E6842F82600002070BD7FFB08003F
:1019A00010B50346D1E9000440EA04108C6840EA0F
:1019B00004208C8940EA0444088A401E44EA00540A
:1019C000087D801E44EA00608C692043541C53F853
:1019D000244004F040442043541C43F824000020D9
:1019E00010BD000070B50446002594F821000228BF
:1019F00003D00420A0630125C1E02068006820F026
:101A00000E00216808602068006820F0010021684D
:101A100008605C492068884252D95A497839206860
:101A2000884201D1012047E0564964392068884244
:101A300001D1102040E0534950392068884201D13B
:101A4000801539E04F493C392068884201D1801423
:101A500032E04C4928392068884202D14FF4803066
:101A60002AE0484914392068884202D14FF4801096
:101A700022E044492068884201D140041CE04249E8
:101A80002068884201D1012016E03F4914312068C6
:101A9000884201D110200FE03B492831206888425C
:101AA00001D1801508E038493C312068884201D1D5
:101AB000801401E04FF480303349091F086051E081
:101AC000304978392068884201D1012047E02D490A
:101AD00064392068884201D1102040E029495039FA
:101AE0002068884201D1801539E026493C392068B8
:101AF000884201D1801432E0224928392068884286
:101B000002D14FF480302AE01E49143920688842FF
:101B100002D14FF4801022E01A492068884201D196
:101B200040041CE018492068884201D1012016E0D9
:101B3000154914312068884201D110200FE0124964
:101B400028312068884201D1801508E00E493C31D7
:101B50002068884201D1801401E04FF480300949A7
:101B600080394860012084F8210000BF002084F8FB
:101B7000200000BF606B10B12046616B884728468B
:101B800070BD000080000240080402402DE9F847C3
:101B9000024600239C467BE14FF0010808FA03F45B
:101BA000D1F8008008EA0400A0427DD1DFF8F4A259
:101BB000D1F80480A8EB0A09D0453AD014DCB8F17A
:101BC000030F50D009DCB8F1000F31D0B8F1010F8C
:101BD0001CD0B8F1020F49D120E0B8F1110F18D094
:101BE000B8F1120F42D11EE0B9F5881F25D006DCEE
:101BF000B9F5803F20D0B9F5801F37D11AE0B9F58B
:101C0000001F18D0B9F5041F30D117E0D1F80CC06F
:101C10002DE0D1F80C8008F1040C28E0D1F80C80FC
:101C200008F1080C23E0D1F80C8008F10C0C1EE040
:101C300000BF00BF00BF00BF00BF00BFD1F80880D9
:101C4000B8F1000F02D14FF0040C0BE0D1F808807E
:101C5000B8F1010F03D14FF0080C146102E04FF00E
:101C6000080C546103E04FF0000C00E000BF00BF1F
:101C7000FF2801D8904601E002F104084646FF28FB
:101C800002D84FEA830803E0A3F108084FEA880866
:101C90004746D6F800804FF00F0909FA07F928EAFD
:101CA00009080CFA07F900E07AE048EA0908C6F8E2
:101CB0000080D1F8048008F08058B8F1805F6FD1BF
:101CC00000BFDFF8E481D8F8188048F00108DFF899
:101CD000D891C9F81880C846D8F8188008F00108CB
:101CE000CDF8008000BF00BF4FEAB9384FEA930932
:101CF00058F829504FEA83784FEA18794FF00F08C7
:101D000008FA09F825EA0805DFF8A081424502D162
:101D10004FF0000824E0DFF89881424502D14FF0EF
:101D200001081DE0DFF88C81424502D14FF0020826
:101D300016E0DFF88481424502D14FF003080FE03E
:101D4000DFF87881424502D14FF0040808E0DFF85F
:101D50007081424502D14FF0050801E04FF00608BE
:101D60004FEA83794FEA197908FA09F848EA050534
:101D7000DFF850814FEA930948F82950D1F80480E0
:101D800008F48038B8F5803F0BD1DFF83C81D8F8F3
:101D9000008048EA0008DFF83091C9F800800AE0C6
:101DA00075E0DFF82481D8F8008028EA0008DFF821
:101DB0001891C9F80080D1F8048008F40038B8F50B
:101DC000003F0ED1DFF8008108F10408D8F8008048
:101DD00048EA0008DFF8F09009F10409C9F800802A
:101DE0000DE0DFF8E48008F10408D8F8008028EA64
:101DF0000008DFF8D49009F10409C9F80080D1F88F
:101E0000048008F48018B8F5801F0ED1DFF8B88080
:101E100008F10808D8F8008048EA0008DFF8A89020
:101E200009F10809C9F800800DE0DFF89C8008F18D
:101E30000808D8F8008028EA0008DFF88C9009F13B
:101E40000809C9F80080D1F8048008F40018B8F532
:101E5000001F0ED1DFF8708008F10C08D8F8008060
:101E600048EA0008DFF8609009F10C09C9F8008021
:101E70000DE0DFF8548008F10C08D8F8008028EA5B
:101E80000008DFF8449009F10C09C9F800805B1CD8
:101E9000D1F8008028FA03F8B8F1000F7FF47CAE87
:101EA000BDE8F88700001110001002400008014052
:101EB000000C0140001001400014014000180140D6
:101EC000001C0140080001400004014002469368E4
:101ED0000B400BB1012000E00020704710B5C26834
:101EE00021EA020302EA010443EA0443036110BD4C
:101EF0000AB1016101E00B04036170470148006809
:101F0000704700001C00002003480068034909785E
:101F100008440149086070471C000020240000208C
:101F200010B50848006840F010000649086003201A
:101F300000F080F80F2000F007F800F02BF80020E8
:101F400010BD00000020024070B504460E48007825
:101F50004FF47A71B1FBF0F00C490968B1FBF0F570
:101F6000284600F073FC08B1012070BD102C07D288
:101F700000222146501E00F01EF80548046001E0D2
:101F80000120F2E70020F0E72400002000000020FC
:101F900020000020704701460846002809DB00F0B9
:101FA0001F0301229A4043099B0003F1E023C3F879
:101FB000002100BF70472DE9F05F80460D461646B0
:101FC000002701F077F8074639462A46334601F0E4
:101FD0000700C0F1070ABAF1040F02D94FF0040A52
:101FE00001E0C0F1070AD14600F1040ABAF1070F77
:101FF00002D24FF0000A01E0A0F1030AD4464FF0EC
:10200000010A0AFA09FAAAF1010A0AEA020A0AFA14
:102010000CFA4FF0010B0BFA0CFBABF1010B0BEAC6
:10202000030B4AEA0B042146404601F04BF8BDE899
:10203000F09F000000BF00F00702064B19684FF642
:10204000FF031940044B0B4343EA0221014B196083
:1020500000BF70470CED00E00000FA0570B50446C3
:102060000D460CB9012070BD5A48006800F0070009
:10207000A8420ED25748006820F00700284355496F
:1020800008600846006800F00700A84201D001205F
:10209000E9E7207800F0020002281DD1207800F046
:1020A0000400042805D14C48406840F4E0604A49E7
:1020B0004860207800F00800082805D146484068AC
:1020C00040F46050444948604348406820F0F000C4
:1020D000A168084340494860207800F0010078B3C7
:1020E0006068012806D13C48006800F4003090B9CF
:1020F0000120B8E76068022806D13748006800F080
:10210000007040B90120AEE73348006800F00200DB
:1021100008B90120A7E73048406820F00300616853
:1021200008432D494860FFF7E9FE064609E0FFF73E
:10213000E5FE801B41F28831884202D9032092E7F4
:1021400007E02548406800F00C006168B0EB810FA3
:10215000EDD12048006800F00700A8420ED91D48C4
:10216000006820F0070028431A4908600846006804
:1021700000F00700A84201D0012074E7207800F0A9
:102180000400042807D11448406820F4E060E168A6
:10219000084311494860207800F00800082808D159
:1021A0000D48406820F46050216940EAC1000A49A6
:1021B000486000F03FF808494968C1F30311074A35
:1021C000515CC8400649086006480068FFF7BCFE3D
:1021D000002048E70020024000100240CA840308A3
:1021E0000000002020000020014800687047000027
:1021F0000000002000B5FFF7F7FF04494968C1F36C
:102200000221034A515CC84000BD0000001002409A
:10221000DA84030800B5FFF7E7FF04494968C1F312
:10222000C221034A515CC84000BD000000100240BA
:10223000DA840308F0B585B00FF26C0C9CE8E0106E
:1022400001A8A0E8E0101CA52D680095002100223F
:10225000002300240020194D696801F00C05F5B138
:10226000042D02D0082D19D101E0154819E001AD67
:10227000C1F38346AC5D01F4803555B10F4D6D68F7
:10228000C5F340451DF805200D4D6543B5FBF2F340
:1022900002E00C4D04FB05F3184602E000BF0848BD
:1022A00000BF00BF05B0F0BD020304050607080922
:1022B0000A0B0C0D0E0F101001020000001002405E
:1022C00000127A0000093D00F8B504460CB901205F
:1022D000F8BD207800F00100002878D0F848406868
:1022E00000F00C0004280CD0F548406800F00C0009
:1022F000082811D1F248406800F48030B0F5803FE2
:102300000AD1EF48006800F4003000285FD0606810
:1023100000285CD10120DBE700BF6068B0F5803F9A
:1023200006D1E748006840F48030E549086028E0BD
:10233000606858B9E248006820F48030E0490860DD
:102340000846006820F4802008601AE06068B0F554
:10235000A02F0BD1DA48006840F48020D8490860EB
:102360000846006840F4803008600AE0D4480068FD
:1023700020F48030D24908600846006820F48020AC
:10238000086000BF606888B1FFF7B8FD054606E049
:10239000FFF7B4FD401B642801D9032098E7C84823
:1023A000006800F400300028F2D010E0FFF7A6FD2E
:1023B000054606E0FFF7A2FD401B642801D9032073
:1023C00086E7BF48006800F400300028F2D120788A
:1023D00000F00200022857D1B948406800F00C0014
:1023E00050B1B748406800F00C00082818D1B44834
:1023F000406800F4803098B9B148006800F00200ED
:1024000020B12069012801D0012061E7AC480068B3
:1024100020F0F800616940EAC100A949086033E092
:102420002069E8B10120A7490860FFF767FD05466C
:1024300006E0FFF763FD401B022801D9032047E7B0
:102440009F48006800F002000028F2D09C48006815
:1024500020F0F800616940EAC1009949086013E082
:10246000002098490860FFF749FD054606E0FFF7A0
:1024700045FD401B022801D9032029E79048006848
:1024800000F002000028F2D1207800F008000828AF
:102490002DD1A069B8B101208B490860FFF72EFD4E
:1024A000054606E0FFF72AFD401B022801D903205C
:1024B0000EE78348406A00F002000028F2D00120B5
:1024C00000F080FC13E000207F490860FFF716FD54
:1024D000054606E0FFF712FD401B022801D9032044
:1024E000F6E67748406A00F002000028F2D1207832
:1024F00000F00400042873D100277148C06900F07F
:10250000805070B900BF6E48C06940F080506C497F
:10251000C8610846C06900F08050009000BF00BF4D
:1025200001276A48006800F48070B0B96748006805
:1025300040F4807065490860FFF7E0FC054606E05E
:10254000FFF7DCFC401B642801D90320C0E65F488C
:10255000006800F480700028F2D000BFE068012815
:1025600006D15748006A40F001005549086227E04B
:10257000E06858B95248006A20F0010050490862EA
:102580000846006A20F00400086219E0E0680528A7
:102590000BD14B48006A40F00400494908620846E4
:1025A000006A40F0010008620AE04548006A20F035
:1025B0000100434908620846006A20F004000862EE
:1025C00000BFE068A0B1FFF799FC054609E0FFF7FE
:1025D00095FC401B41F28831884202D9032077E6FE
:1025E00022E03748006A00F002000028EFD012E035
:1025F000FFF784FC054608E0FFF780FC401B41F232
:102600008831884201D9032062E62D48006A00F033
:1026100002000028F0D1012F05D12948C06920F01F
:1026200080502749C86100BFE069C8B324484068AA
:1026300000F00C00082860D0E069022848D1002092
:1026400020490866FFF75AFC054606E0FFF756FCEE
:10265000401B022801D903203AE61948006800F01F
:1026600000700028F2D1206AB0F5803F07D11448ED
:10267000406820F40030A168084311494860D4E95B
:10268000080108430E49496821F4741108430C49B4
:10269000486001200B490866FFF730FC054607E05B
:1026A0003DE0FFF72BFC401B022801D903200FE679
:1026B0000348006800F000700028F2D02FE000000E
:1026C000001002400000424280044242007000407C
:1026D000002014490866FFF711FC054606E0FFF7E5
:1026E0000DFC401B022801D90320F1E50E480068CB
:1026F00000F000700028F2D111E0E069012800D15B
:10270000E6E50948466806F48031206A814204D132
:1027100006F47011606A814201D00120D8E50020E2
:10272000D6E50000000042420010024070B50446A9
:102730000E4615461CB1A069B0F5807F01D101207D
:1027400070BD94F8410028B9002084F8400020466C
:1027500000F020F804F108012068FFF7E5F83146A1
:10276000A2682068FFF71CF92946236BD4E901020F
:10277000FFF7B8F8A168206850F8210040F0010088
:10278000A268216841F82200012084F8410000205D
:10279000D6E7000010B586B0044600BF1E48406969
:1027A00040F480701C4948610846406900F480701C
:1027B000019000BF00BF00BF0846806940F02000C4
:1027C00088610846806900F02000019000BF00BFCA
:1027D00000BF0846806940F0400088610846806973
:1027E00000F04000019000BF00BF4CF20370029067
:1027F00002200390012004900320059002A90748BD
:10280000FFF7C4F94FF68070029002A90448FFF761
:10281000BDF906B010BD00000010024000140140D8
:1028200000180140042808D14FF0E021096941F067
:1028300004014FF0E022116107E04FF0E021096947
:1028400021F004014FF0E0221161704770B5044699
:102850002546681EB0F1807F01D301200FE0681E7D
:102860004FF0E02148610F214FF0FF3000F02AFCCB
:1028700000204FF0E021886107200861002070BD32
:1028800070477047704710B5044620680069C0F370
:102890004000D8B12068C068C0F34000B0B16FF00C
:1028A000020021680861012020772068806900F01B
:1028B000030018B12046FFF7E5FF05E0204600F0D1
:1028C000ADF8204600F0ABF80020207720680069C2
:1028D000C0F38000D8B12068C068C0F38000B0B1F8
:1028E0006FF0040021680861022020772068806969
:1028F00000F4407018B12046FFF7C4FF05E0204601
:1029000000F08CF8204600F08AF80020207720683C
:102910000069C0F3C000D8B12068C068C0F3C0002F
:10292000B0B16FF0080021680861042020772068AA
:10293000C06900F0030018B12046FFF7A3FF05E0CF
:10294000204600F06BF8204600F069F80020207760
:1029500020680069C0F30010D8B12068C068C0F3D7
:102960000010B0B16FF010002168086108202077D6
:102970002068C06900F4407018B12046FFF782FF5C
:1029800005E0204600F04AF8204600F048F8002014
:1029900020772068006900F0010058B12068C06805
:1029A00000F0010030B16FF001002168086120469D
:1029B00000F036F820680069C0F3C01058B12068F4
:1029C000C068C0F3C01030B16FF0800021680861AA
:1029D0002046FFF755FF20680069C0F3801058B10A
:1029E0002068C068C0F3801030B16FF040002168EB
:1029F0000861204600F024F820680069C0F3401008
:102A000058B12068C068C0F3401030B16FF02000AA
:102A1000216808612046FFF734FF10BD70477047FA
:102A200010B504460448844205D100BF2021034864
:102A3000FFF754FA00BF10BDBC040020001801408D
:102A4000704770472DE9F047044620680568206804
:102A5000C668206847694FF00008C14605F00F08B6
:102A6000B8F1000F0AD105F0200038B106F02000BF
:102A700020B1204600F0F8F9BDE8F087B8F1000F6A
:102A800071D007F0010018B906F4907000286AD0E0
:102A900005F0010030B106F4807018B1E06B40F031
:102AA0000100E06305F0040030B107F0010018B147
:102AB000E06B40F00200E06305F0020030B107F087
:102AC000010018B1E06B40F00400E06305F008007D
:102AD00048B106F0200010B907F0010018B1E06B12
:102AE00040F00800E063E06B68B305F0200028B117
:102AF00006F0200010B1204600F0B6F920684069C9
:102B0000C0F38019E06B00F0080010B9B9F1000FB4
:102B100022D0204600F088F92068406900F040008B
:102B2000B0B12068406920F0400021684861606BC6
:102B300050B11848616B4863606BFEF753FF10B1EA
:102B4000606B416B88470CE02046FFF77AFF08E096
:102B50002046FFF776FF04E02046FFF772FF0020D3
:102B6000E06389E7FFE705F0800030B106F0800000
:102B700018B1204600F046FA7EE705F0400030B17B
:102B800006F0400018B1204600F05EF974E700BF7F
:102B900072E70000152E000810B504460CB901209C
:102BA00010BDA06900B100E000BF94F8390028B959
:102BB000002084F83800204600F028F8242084F80B
:102BC00039002068C06820F400502168C8602046A1
:102BD00000F09AF92068006920F4904021680861AB
:102BE0002068406920F02A00216848612068C06898
:102BF00040F400502168C8600020E063202084F881
:102C0000390084F83A000020CAE7000010B586B009
:102C100004462849206888424AD100BF00BF2648A0
:102C2000806940F00400244988610846806900F00A
:102C30000400019000BF00BF00BF00BF00BF0846F6
:102C4000806940F0040088610846806900F0040053
:102C5000019000BF00BF00BF00BF00BF08468069F1
:102C600040F4804088610846806900F4804001900B
:102C700000BF00BF00BF4815029002200390012052
:102C800004900320059002A90C48FEF77FFF4FF443
:102C9000806002900020039002A90848FEF776FFAA
:102CA0002520FFF778F9032211462520FFF783F945
:102CB00006B010BD0038014000100240000801407D
:102CC00010B5034693F83A0020282FD101B10AB974
:102CD000012010BD00BF93F83800012801D1022067
:102CE000F7E7012083F8380000BF99629A85DA85FA
:102CF0000020D863222083F83A0000BF002083F828
:102D0000380000BF1868C06840F480701C68E0603C
:102D10001868406940F001001C6860611868C0686C
:102D200040F020001C68E0600020D2E70220D0E7DD
:102D30001D4A0168914236D11C49098801F40041BD
:102D400089BB1A49098801F4804171B11849097891
:102D50000A2903D00021154A118024E0134909886B
:102D600041F40041114A11801DE0114909780D29F3
:102D700006D10E49098841F480410C4A118012E0C5
:102D80000B490978094A1288C2F30D02094B99547C
:102D900006490988491C054A118011460988C72936
:102DA00001DD00211180704700380140180000202B
:102DB0001A00002014030020704700BFFEE700BF88
:102DC000FEE7704708B508490968C9084FF47A72E8
:102DD000B1FBF2F14143009100BF00BF00994A1ED0
:102DE00000920029F9D108BD0000002010B5FFF7BE
:102DF0008BF834F09DFA012801D034F063F810BD4F
:102E00007047000010B50248FFF73DFD10BD0000FF
:102E1000BC04002070B505466C6A0020E085E084A3
:102E20002046FFF70EFE70BD0168C96821F490715D
:102E30000268D1600168496921F0010102685161AD
:102E4000202180F83A10704710B504462068C06809
:102E500020F040002168C860202084F83900204616
:102E6000FFF7AAFF002010BD70B5044694F83A00A1
:102E7000222847D1A068B0F5805F0CD1206950B9F5
:102E80000025A66A20684068C0F308003080A06A68
:102E9000801CA06215E0A56A0026A068B0F5805FDE
:102EA00003D0A06828B9206918B920684068287044
:102EB00004E02068406800F07F002870A06A401C91
:102EC000A062E08D401E80B2E085C8B92068C0686D
:102ED00020F020002168C8602068C06820F480705D
:102EE0002168C8602068406920F0010021684861BD
:102EF000202084F83A002046FFF71AFF002070BD1A
:102F00000020FCE70220FAE770B504462168096951
:102F100021F44051E2681143226811612269A168DD
:102F20001143626941EA02052168C96841F20C62F5
:102F3000914329432268D1602168496921F4407195
:102F4000A2691143226851612D4A2168914202D140
:102F5000FFF760F901E0FFF74DF900EBC00101EB6D
:102F6000001162689200B1FBF2F100EBC00202EBCB
:102F7000001263689B00B2FBF3F26423B2FBF3F22E
:102F800002EBC20303EB0212A1EB8201322202EB3D
:102F900001116422B1FBF2F101F0F00100EBC0027B
:102FA00002EB001263689B00B2FBF3F26423B2FBF6
:102FB000F3F201EB021200EBC00101EB00116368B8
:102FC0009B00B1FBF3F100EBC00303EB0013666859
:102FD000B600B3FBF6F36426B3FBF6F303EBC306CC
:102FE00006EB0313A1EB8301322303EB01116423EE
:102FF000B1FBF3F101F00F0111442268916070BD43
:1030000000380140014691F83900212828D188680C
:10301000B0F5805F0BD1086948B90A6A1088C0F31F
:1030200008000B685860086A801C086205E00B6A9B
:10303000581C086218780B685860C88C401E80B213
:10304000C88458B90868C06820F080000B68D86050
:103050000868C06840F040000B68D86000207047E6
:103060000220FCE710B50648FFF7ECFC00BF012288
:1030700004490348FFF724FE0028F8D110BD0000E2
:10308000DC0300201A00002000BFFEE7490050EAE0
:10309000C12018BF04204A0D18BF40F0010040F2C3
:1030A000FF72B2EB515F08BF40F00200012808BF79
:1030B0000520704702480068C0F3022070470000F6
:1030C0000CED00E010B5002804DB0A07130E054ADA
:1030D000135406E00A07140E034A00F00F031B1FE7
:1030E000D45410BD00E400E018ED00E070B50446D3
:1030F000002508E02168481C20600878303805EB7E
:10310000850100EB41052168087800F004F80028EB
:10311000F0D1284670BD0146302903DB392901DC96
:10312000012070470020FCE730380A2801D2012036
:10313000704700207047000010B54021074801F09B
:10314000E3FA0022042106482BF028F9054908601B
:1031500002F002FE00200449087010BD90C3002058
:10316000255E0008940200209002002030B503463E
:10317000B1F90040B2F90050AC4202DDB1F90040B3
:1031800001E0B2F900401C80B1F90240B2F90250EE
:10319000AC4202DDB1F9024001E0B2F902405C80CC
:1031A000B1F90440B2F90450AC4202DAB1F904407A
:1031B00001E0B2F904409C80B1F90640B2F9065032
:1031C000AC4202DAB1F9064001E0B2F90640DC8017
:1031D0000120B3F90040B3F90450AC4205DCB3F967
:1031E0000240B3F90650AC4200DD002030BDF8B516
:1031F00004460D4616460027B4F90000B5F9001044
:10320000884212DBB4F90200B5F9021088420CDBE7
:10321000B4F90400B5F90410884206DCB4F90600DC
:10322000B5F90610884200DC01270FB90020F8BD6F
:103230000EB90120FBE72088ADF800006088ADF8EA
:10324000020032466946284600F0A7F808B9002077
:10325000EDE7A088ADF800006088ADF802003246C6
:103260006946284600F099F808B90020DFE7208871
:10327000ADF80000E088ADF8020032466946284605
:1032800000F08BF808B90020D1E7A088ADF8000065
:10329000E088ADF8020032466946284600F07DF825
:1032A00008B90020C3E70120C1E70246B2F90000D7
:1032B000B1F90430984213DCB2F90400B1F90030DE
:1032C00098420DDBB2F90200B1F90630984207DCF2
:1032D000B2F90600B1F90230984201DB01207047D3
:1032E0000020FCE7F8B504460D461646B4F9040084
:1032F000B5F90010884211DBB4F90600B5F90210E7
:1033000088420BDBB4F90000B5F90410884205DCF3
:10331000B4F90200B5F90610884201DD0120F8BDBC
:103320000EB90020FBE72088ADF800006088ADF8FA
:10333000020032466946284600F02FF808B1002006
:10334000EDE7A088ADF800006088ADF802003246D5
:103350006946284600F021F808B10020DFE7208800
:10336000ADF80000E088ADF8020032466946284614
:1033700000F013F808B10020D1E7A088ADF80000F4
:10338000E088ADF8020032466946284600F005F8AC
:1033900008B10020C3E70120C1E72DE9FC5F054625
:1033A0000E4614464FF0000AB6F90000B5F90010B9
:1033B000884213DBB6F90000B5F9041088420DDC31
:1033C000B6F90200B5F90210884207DBB6F902002F
:1033D000B5F90610884201DC4FF0010ABAF1000F7E
:1033E00002D10020BDE8FC9F002C01DC0120F9E7A0
:1033F000284616F0A4FD834600EBDB7047102846F4
:1034000016F015FD834600EBDB704FEA6008474578
:1034100001DA384600E0404681464C4500DD4C4626
:103420002888ADF800002888204400B2ADF80400D8
:103430006888ADF802006888204400B2ADF8060044
:10344000002231466846FFF7A8FF80B1BDF80400AE
:10345000204400B2ADF80400BDF80600204400B2DC
:10346000ADF806003146684627F062FBBAE7E88807
:10347000001B00B2ADF80200E888ADF8060000229B
:1034800031466846FFF789FF80B1BDF8040020444B
:1034900000B2ADF80400BDF80200001B00B2ADF8A8
:1034A00002003146684627F043FB9BE7A888001BD3
:1034B00000B2ADF80000A888ADF804000022314643
:1034C0006846FFF76AFF80B1BDF80000001B00B23C
:1034D000ADF80000BDF80200001B00B2ADF802001C
:1034E0003146684627F024FB7CE76888ADF8020087
:1034F0006888204400B2ADF80600002231466846D4
:10350000FFF74BFF80B1BDF80000001B00B2ADF823
:103510000000BDF80600204400B2ADF806003146B8
:10352000684627F005FB5DE701205BE710B5B1F9C0
:103530000030B2F90040A34202DAB1F9003001E0F4
:10354000B2F900300380B1F90230B2F90240A3426F
:1035500002DAB1F9023001E0B2F902304380B1F988
:103560000430B2F90440A34202DDB1F9043001E0B5
:10357000B2F904308380B1F90630B2F90640A342B3
:1035800002DDB1F9063001E0B2F90630C38010BDAA
:103590002DE9FF4104462AF0A2FE054600200390D3
:1035A00034B14749E068086020462BF00FF803E08B
:1035B00019F030FB4249086041490968086927F061
:1035C00015FA3F480068406920B13D4909684869DB
:1035D00027F00CFA3A490968C86927F007FA384910
:1035E0000968086A27F002FA35480068006940B99E
:1035F000002033490968A1F8500100BF00BFBDE8B1
:10360000FF8127F095FD27F0DBFC2D480068B0F81E
:10361000500100284BD02A4800680068007CC0F3A5
:103620004000E8B12648006819F072FB401E06B25F
:103630002348006819F006FB401E07B23B460022F3
:10364000114601A8009616F0BFFC01A81C490968A4
:103650000968896B48601A48006805F027FE00BFBA
:103660004FF4807116480068303021F02EFC202184
:103670001348006800F5987021F027FC00201049DD
:103680000968A1F8500128462AF01CFE03900C4856
:1036900000680068406A50B109490968086808492B
:1036A000096809684B6A07490A680399984721F035
:1036B00045F900F03FF800F007F800BF9FE7000071
:1036C0004C0100204801002010B5002416E0C4EB96
:1036D000C4000C4951F8200030B1C4EBC401094AC0
:1036E00052F8210021F0DCF9C4EBC401054A02EBD9
:1036F00081001C2121F0E9FB601CC4B2042CE6DB34
:1037000010BD00006CC400200146094A10680BE09F
:1037100042688A4202D002688A4204D1027E22F0C4
:103720000102521C027640690028F1D17047000066
:10373000200100207047000010B50421014800F06E
:10374000E3FF10BD84C3002010B51C21014800F028
:10375000DBFF10BD9CC300202DE9FF4F8BB004465A
:103760009A46199DBAF1000F11D11898B0F5807FD3
:103770000DD10020208060800C98401E00B2A080F7
:103780000D98401E00B2E0800FB0BDE8F08FB5F993
:1037900000004042189948430121C1EB202000B2AB
:1037A0002080B5F902004042189948430121C1EB3D
:1037B000202000B26080B5F900100C98401A1899CA
:1037C0004843022101EB202000B2A080B5F902108D
:1037D0000D98401A18994843022101EB202000B2AD
:1037E000E080BAF1000F14D120882988084400B283
:1037F000208060886988084400B26080A088298899
:10380000084400B2A080E0886988084400B2E080E3
:10381000BAE70A209AFBF0F00A900A98401C099037
:103820000A9800EB8000AAEB400B0A9800B22BF03C
:1038300053F80890099800B22BF04EF807900A98B8
:103840005A3000B22BF048F8069009985A3000B26E
:103850002BF042F80590CBF10A01089841430798F4
:1038600000FB0B100A2190FBF1F6CBF10A01069840
:103870004143059800FB0B100A2190FBF1F77611EC
:103880007F11B4F90080B4F9029007FB08F006FB41
:103890001900298801EBA02000B2ADF8100006FB4A
:1038A00008F007FB0900698801EBA02000B2ADF821
:1038B0001200B4F90480B4F9029007FB08F006FB8B
:1038C0001900298801EBA02000B2ADF80C0006FB1E
:1038D00008F007FB0900698801EBA02000B2ADF8F1
:1038E0000E00B4F90080B4F9069007FB08F006FB5F
:1038F0001900298801EBA02000B2ADF8080006FBF2
:1039000008F007FB0900698801EBA02000B2ADF8C0
:103910000A00B4F90480B4F9069007FB08F006FB2E
:103920001900298801EBA02000B2ADF8040006FBC5
:1039300008F007FB0900698801EBA02000B2ADF890
:103940000600BDF90800BDF91010884202DABDF981
:10395000080001E0BDF91000BDF90410BDF90C200C
:10396000914202DABDF9041001E0BDF90C10884261
:103970000BDABDF90800BDF91010884202DABDF972
:1039800008000DE0BDF910000AE0BDF90400BDF922
:103990000C10884202DABDF9040001E0BDF90C0008
:1039A0002080BDF90800BDF91010884202DDBDF984
:1039B000080001E0BDF91000BDF90410BDF90C20AC
:1039C000914202DDBDF9041001E0BDF90C108842FE
:1039D0000BDDBDF90800BDF91010884202DDBDF90C
:1039E00008000DE0BDF910000AE0BDF90400BDF9C2
:1039F0000C10884202DDBDF9040001E0BDF90C00A5
:103A0000A080BDF90A00BDF91210884202DABDF9A2
:103A10000A0001E0BDF91200BDF90610BDF90E2043
:103A2000914202DABDF9061001E0BDF90E1088429C
:103A30000BDABDF90A00BDF91210884202DABDF9AD
:103A40000A000DE0BDF912000AE0BDF90600BDF95B
:103A50000E10884202DABDF9060001E0BDF90E0041
:103A60006080BDF90A00BDF91210884202DDBDF97F
:103A70000A0001E0BDF91200BDF90610BDF90E20E3
:103A8000914202DDBDF9061001E0BDF90E10884239
:103A90000BDDBDF90A00BDF91210884202DDBDF947
:103AA0000A000DE0BDF912000AE0BDF90600BDF9FB
:103AB0000E10884202DDBDF9060001E0BDF90E00DE
:103AC000E08000BF60E62DE9F74F86B0044620682D
:103AD0000590B4F908100798A0EB0108B4F90A1092
:103AE0000898A0EB0109E089B0F5807F13D1206B25
:103AF00000FB08F0E16A01FB1901606A00EBA10B11
:103B0000E06A00FB08F0216B01FB0901A06A00EBF1
:103B1000A10004902FE0A08980B9A06B00FB08F001
:103B20004FEA6018A06B00FB09F04FEA6019606A69
:103B300000EB080BA06A484404901CE0A06B00FB5B
:103B400008F04FEA6018A06B00FB09F04FEA60191B
:103B5000206B00FB08F0E16A01FB1901606A00EBD1
:103B6000A12BE06A00FB08F0216B01FB0901A06AB0
:103B700000EBA12004904FEA2B2604980712B4F919
:103B80000400B04203DC002009B0BDE8F08F002E35
:103B900001DA0020F8E7B4F90600B84201DC0020A1
:103BA000F2E7002F01DA0020EEE73420005DC0F3D9
:103BB000800050B33420005DC0F3400078B9022586
:103BC000B4F904007843684306FB050A059800EB46
:103BD0000A012A4604F1140021F025F92CE00325FE
:103BE000B4F904007843684306FB050A6A1E059889
:103BF00000EB0A0104F1140021F015F90AEB0500AD
:103C0000401E0599095CA17516E04FF0000A0025D9
:103C1000208A03463AB231B2019004F118001DF037
:103C200089FD0290BDF80800A0823AB231B204F1D9
:103C300018001DF0DFFCA0753420005D00F00100CD
:103C4000B0B14FF47F40002100F47C4241EA5211B0
:103C5000C0F3C40211430191BDF804201146029142
:103C6000A08ABDF80810884201D100208CE700BF6F
:103C7000E07C08B9012087E70FFA8BF1A18704984F
:103C800001B2E18731B24020015339B242200153E1
:103C9000C4F844A084F84850204600F003F803908C
:103CA000039871E72DE9F04F8DB00446D4F80090E9
:103CB00094F83C000C9094F83E000B900C987028FF
:103CC0000BDA4FF0FF35B4F940002844002800DA41
:103CD00000250C988030C7B213E00C9890280EDDB8
:103CE0000125B4F940002844B4F90410884200DBEF
:103CF00000250C98C0F1FF008030C7B201E000251C
:103D0000FF270B9870280CDA4FF0FF36B4F9420009
:103D10003044002800DA00260B98803000F0FF08BD
:103D200015E00B9890280FDD0126B4F942003044CD
:103D3000B4F90610884200DB00260B98C0F1FF00A2
:103D4000803000F0FF0802E000264FF0FF08A08A54
:103D50000A90A07D069000200590049003903420E6
:103D6000005DC0F3800000285BD094F84800626CCE
:103D700000FB052000EB0901022209A821F053F8FD
:103D8000B4F9040094F848205043626C00FB06200C
:103D900000EB0901022208A821F045F8B4F904005B
:103DA00094F848205043626C00FB062294F84800C7
:103DB00000FB052000EB0901022207A821F033F8DF
:103DC0003420005DC0F3400000287ED094F8480005
:103DD000616C00FB05110844401E19F800000590B5
:103DE000B4F9040094F848104843616C00FB0611D4
:103DF00094F848000844401E19F800000490B4F9F3
:103E0000040094F848104843616C00FB061194F8D4
:103E1000480000FB05110844401E19F800000390FB
:103E200053E0208A0090B4F942204020005B2844EF
:103E300001B204F11800009B1DF07CFC0990208A5F
:103E400000904220005B304402B2B4F9401004F10B
:103E50001800009B1DF06EFC0890208A0090422004
:103E6000005B304402B24020005B284401B204F100
:103E70001800009B1DF05EFC07903420005DC0F32D
:103E8000400010B3B4F942204020005B284401B246
:103E900004F118001DF0AEFB05904220005B304499
:103EA00002B2B4F9401004F118001DF0A3FB049015
:103EB0004220005B304402B24020005B284401B243
:103EC00004F118001DF096FB0390BA46BB4634205F
:103ED000005DC0F34000E0B306987843C7F1FF0CE3
:103EE000059B03FB0C00C0F3072104987843C7F13E
:103EF000FF0C039B03FB0C00C0F3072201FB08F03F
:103F0000C8F1FF0302FB0300030AA375022905DCC5
:103F1000022A03DC00200DB0BDE8F08F022901DC8D
:103F20004FF00008022A01DC4FF0FF080698022833
:103F300001DC4FF0000A0598022801DC4FF0FF0A6F
:103F40000498022801DC4FF0000B0398022803DCE0
:103F500000E002E04FF0FF0B03E0BA46BB46FF2152
:103F6000A175BAF1000F02D1099802900BE0BAF1E5
:103F7000FF0F02D10A98029005E05246DDE90910D0
:103F800018F0B6F80290BBF1000F02D1079801902B
:103F90000BE0BBF1FF0F02D10898019005E05A46F3
:103FA000DDE9071018F0A4F80190B8F1000F03D173
:103FB000BDF80400A0820FE0B8F1FF0F03D1BDF8F7
:103FC0000800A08208E04246DDE9011018F090F8F0
:103FD0000090BDF80000A08201209CE72DE9F05F71
:103FE0000446B4F9080001026162B4F90A00010252
:103FF000A162B4F90C000A2190FBF1F56F1CB4F931
:104000000C0005EB8501A0EB4106684200B22AF0E6
:1040100063FC8046784200B22AF05EFC8146C5F11E
:104020005A0000B22AF058FC8246C7F15A0000B28A
:104030002AF052FC8346C6F10A0000FB08F009FB97
:1040400006000A2190FBF1F1E162C6F10A0000FBD3
:104050000AF00BFB06000A2190FBF1F12163E06AF4
:104060004111E162206B41112163A07C1DF071FCC4
:104070003421095D60F3000134200155A07C1DF05E
:104080004BFC3421095D60F3410134200155A07CD3
:10409000042805D0A07C052802D0A07C062807D1E2
:1040A0003420005D20F00400001D3421085505E097
:1040B0003420005D20F00401342001552168216284
:1040C000A06920F0E000A061A17CA06961F3040078
:1040D000A061A188A06961F39420A061E188A06932
:1040E00061F35F50A061E08900EBD071491001F5E8
:1040F000001191FBF0F2A263FF21A175208AA0823A
:10410000BDE8F09F2DE9F743054616460024134C01
:104110002AF0E5F88046334629462046019A1EF0EB
:10412000C7F807465FB900BF00BF2C21204620F02A
:10413000CCFE4FF00040A0620020BDE8FE830020CE
:10414000A062E06918B940462AF0BCF8E061E06975
:1041500008B90120E0612046EFE70000C0C300205D
:1041600010B51421114800F0CFFA1EF053F80446A0
:1041700000BF1CB900BF00BF00BFFEE700BF14B9FD
:1041800000BF00BF10BD0A4920461EF02BF90949A7
:1041900020461EF029F9084920461EF027F9074954
:1041A00020461EF01DF900BFECE70000A8C3002068
:1041B000311A0208051F020821210208F919020814
:1041C00070B504460D461021284620F07EFE20687A
:1041D0000078012804D1208A2880608A68800CE059
:1041E00020680078022802D1E068686005E0206855
:1041F0000078042801D10A2068602068406820B156
:10420000206829464268904701E000BF00BF70BDAA
:104210002DE9FE430446A66AEEB9A18A208A084425
:1042200001B2A182E18A608A084401B2E18220469B
:104230000CF055FD06460EB9BDE8FE83204610F091
:1042400037FC0022092130461CF0B2F96078C0F337
:10425000400000B1F0E7208A10B9608A002870D0D1
:1042600000200290019094F83C0000F00F00032819
:1042700012D1304622F0E2FE0746304622F066FEBA
:10428000804603200090B4F910103B464246304669
:104290000CF01CF8029012E0304622F051FF074665
:1042A000304622F0C5FD80460C200090B4F9121073
:1042B00043463A4630460CF009F8019000BF3046BC
:1042C00022F016FE054605F0010028B9BDF90800E8
:1042D000002801DD0020029005F0020028B9BDF998
:1042E0000800002801DA0020029005F0040028B937
:1042F000BDF90400002801DD0020019005F0080050
:1043000028B9BDF90400002801DA0020019001AAB3
:1043100002A920462DF018FA0023BDF90420BDF9AA
:104320000810304625F0EAFDA08ABDF808100844C0
:1043300001B2A182E08ABDF80410084401B2E18212
:1043400000BF00BF78E72DE9F84F0446D4F828B045
:10435000BBF1000F01D1BDE8F88F94F83C0000F0EC
:104360000F0000B9F7E71EF025FB06463068477ED0
:104370004021584624F0ECFA10B9002161832183D2
:10438000584622F0C9FE8046584622F0CFFE054628
:1043900094F83C0000F00F000C2843D10021218349
:1043A0001DBBB4F91A00C7F164014843642190FBB6
:1043B000F1F001B26183584622F03AFD8146584639
:1043C00022F0BEFE82460C200090B4F91A104B4633
:1043D000524658460BF07AFF6083B4F91A20002346
:1043E0001946584625F08AFD69E020462DF003FA6B
:1043F0000090002161836A4620462DF0A5F9BDF9A1
:10440000003041F6FF72514258460CF011FE8146D1
:10441000BDF80000484402B201230021584625F0AF
:104420006DFD4CE094F83C0000F00F00032846D1ED
:1044300000216183B8F1000F23D1B4F91800C7F14E
:1044400064014843642190FBF1F001B22183584696
:1044500022F07CFD8146584622F0F0FD8246032082
:104460000090B4F9181053464A4658460BF02EFFF8
:104470002083B4F9181000231A46584625F03EFD53
:104480001DE020462DF09CF90090002121830022A0
:10449000694620462DF058F9BDF9003041F6FF720B
:1044A000514258460CF02AFD8146BDF800004844B0
:1044B00001B201230022584625F020FD00BF208BC9
:1044C000002860D1608B00285DD11DBB584622F0CA
:1044D00037FE8146584622F0ABFC8246B9F1000F08
:1044E00002DCBAF1000F14DDB9F1000F06DA012386
:1044F0004A460021584625F001FD0AE0BAF1000FB6
:1045000007DA0123CAF1000002B20021584625F063
:10451000F5FC00BFB8F1000F23D1584622F016FD7C
:104520008146584622F08AFD8246B9F1000F02DC2E
:10453000BAF1000F14DDB9F1000F06DA01230022F1
:104540004946584625F0DAFC0AE0BAF1000F07DACE
:1045500001230022CAF1000001B2584625F0CEFC2A
:1045600000BF32460A2158461CF022F86078C0F39A
:10457000400000B1EFE694F83C0020F00F0184F811
:104580003C100021A16200BFE5E62DE9FF41044691
:104590000F4614B918F03EFB04460CB9BDE8FF8184
:1045A0001FB90020A4F85001F8E70020ADF808007A
:1045B000ADF80A00204618F045FB401E00B2ADF8E9
:1045C0000C00204618F0A4FB401E00B2ADF80E000F
:1045D00002AA39466846FEF7C9FD064606B9DDE778
:1045E0002068007CC0F3400060B10298206303980B
:1045F00060630120A4F85001606810B1606829F080
:10460000F1FFCBE72068806918B1206869468269AC
:10461000904700250BE004F1300000EBC5010022BB
:104620006846FEF7E4FD00B1B8E7681C85B2B4F84F
:104630005001A842EFDCB4F85001202809DAB4F8A0
:10464000502104F1300101EBC200694615F05FFB17
:104650000BE00020A4F85001B4F8502104F130011F
:1046600001EBC20002A915F052FBB4F85001401C46
:10467000A4F85001606810B1606829F0B3FF00BF72
:104680008CE770B50546284600F013F8044600266E
:104690000CE02146284600F024F80646214628462C
:1046A00000F086F8204620F0FBF93446002CF0D1CB
:1046B00070BD014609B9002070474868FCE770B535
:1046C000064600243046FFF7F4FF054605E0641C6B
:1046D0002946304600F005F80546002DF7D1204662
:1046E00070BD02460B461068001D034418687047F1
:1046F00002460B461068034418687047014609B922
:10470000002070478868FCE7002242608260CA1C73
:1047100022F003010160704770B50446216801F181
:10472000080020F0EFF80546A5B1002229462046F2
:104730002BF092F92946204662682BF07FF96068D9
:1047400020B12A46204661682BF086F96560A06892
:1047500000B9A560284670BD70B50446216801F116
:10476000080020F0CFF80546A5B1002229462046D2
:104770002BF064F929462046A2682BF06DF9A06859
:1047800020B12A462046A1682BF058F9A560606840
:1047900000B96560284670BD014609B9012070471F
:1047A000486818B9886808B90120F8E70020F6E7DA
:1047B0002DE9F04104460D460CB9BDE8F0812046D4
:1047C000FFF777FFA8420FD129462046FFF789FF60
:1047D0006060606810B90020A0602FE000222046D1
:1047E00061682BF039F929E02046FFF787FFA842DE
:1047F0000FD129462046FFF77BFFA060A06810B9C3
:10480000002060601AE000222046A1682BF016F913
:1048100014E029462046FFF76BFF0646294620464E
:10482000FFF75FFF07463A46314620462BF006F970
:104830003246394620462BF00FF900BF00BFBCE7D7
:1048400010B504462068806818B120682146826847
:1048500090472068006828B12068006820602046E2
:10486000FFF7EEFF10BD0146886818B18868B0F9FF
:10487000160070470020FCE72DE9F04F93B0054685
:104880008B4691469A461C9E688C20F00400001DC1
:104890006884A5F8209032895946284623F0D4FD33
:1048A0001290A5F820A032895946284623F0CCFD65
:1048B0001190688C20F004006884DDE911108842B2
:1048C0000CD1DDE91110884208D1BDF84800BDF8CF
:1048D0004410884202D113B0BDE8F08FA5F82090B3
:1048E00032895946284623F0AFFD1290A5F820A042
:1048F000594628460EF0BFFA10903189109A106878
:10490000129A28F0A8F93089602833D147F6FF7150
:104910001298884202D0119888422BD1284623F061
:10492000BAFF0F9000EBD0704710284623F0B3FF7A
:104930000F9000EBD0704FEA600847F6FF711298B5
:10494000884208D1781C08F10101884200DA01E0B0
:1049500008F10100129047F6FF711198884208D1C2
:10496000781C08F10101884200DA01E008F1010039
:10497000119000BF2448FFF7CFFE044600BF1CB9CA
:1049800000BF00BF00BFFEE700BF04B9A3E7129855
:10499000E06011982061ACB325603089A080C4F834
:1049A00008B0684614F07EFB2146684614F02DFCE2
:1049B0001649684614F0F9FB1548029000BF1549E6
:1049C000684614F000FCFF220021684614F00DFC3C
:1049D0003188684614F0FFFB7188684614F0E0FBEC
:1049E000F068069000BF6846002190F83E2061F311
:1049F000000280F83E2000BF30690590684614F040
:104A00001BFC00BF00BF66E7B4C30020215E0308A3
:104A1000CD600308FD5F030810B514210148FFF7BE
:104A200073FE10BDB4C300202DE9FE4F04460F46AF
:104A300090464FF0000900256BE1E06800EBC500EF
:104A40004068C0F3406000B162E1E16801EBC5017C
:104A5000496821F07F4025F0C6FF064626EA070098
:104A600008B9012000E00020029026EA080008B9F9
:104A7000012000E000200190DDE90101814272D0B7
:104A8000E06850F835A04FF0000B6A4641F610017F
:104A9000504627F079FD10B14FF0010BA9E06A46AE
:104AA00041F61101504627F06FFD10B14FF0010B98
:104AB0009FE06A4641F61201504627F065FD10B1AD
:104AC0004FF0010B95E06A4641F61301504627F07E
:104AD0005BFD10B14FF0010B8BE06A4641F615010A
:104AE000504627F051FD10B14FF0010B81E06A46AE
:104AF00041F61401504627F047FD10B14FF0010B6D
:104B000077E06A4641F26901504627F03DFD10B159
:104B10004FF0010B6DE06A4643F20C01504627F05E
:104B200033FD10B14FF0010B63E06A4643F20D0113
:104B3000504627F029FD10B14FF0010B59E06A46AD
:104B400041F20101504627F01FFD10B14FF0010B5B
:104B50004FE06A4641F20401504627F015FD18B1B6
:104B60004FF0010B45E0D2E06A4641F202015046A7
:104B700027F00AFD10B14FF0010B3AE06A4641F20E
:104B80000301504627F000FD10B14FF0010B30E05B
:104B90006A4641F20501504627F0F6FC10B14FF08D
:104BA000010B26E06A4641F20601504627F0ECFC74
:104BB00010B14FF0010B1CE06A4641F23201504641
:104BC00027F0E2FC10B14FF0010B12E06A4643F609
:104BD0000F01504627F0D8FC10B14FF0010B08E050
:104BE0006A4643F60E01504627F0CEFC08B14FF05E
:104BF000010BBBF1000F02D00320BDE8FE8F6A4617
:104C000040F60A01504627F0BFFC10B14FF00209F0
:104C10007CE06A4640F60B01504627F0B5FC10B127
:104C20004FF0020972E06A4643F60F01504627F042
:104C3000ABFC10B14FF0020968E06A4643F60E0182
:104C4000504627F0A1FC10B14FF002095EE06A4621
:104C500040F63C01504627F097FC10B14FF0020996
:104C600054E06A4640F63D01504627F08DFC10B1F5
:104C70004FF002094AE06A4640F63A01504627F0F2
:104C800083FC10B14FF0020940E06A464FF4046122
:104C9000504627F079FC10B14FF0020936E06A4621
:104CA00040F64501504627F06FFC10B14FF0020965
:104CB0002CE06A4640F64101504627F065FC10B1F1
:104CC0004FF0020922E06A4640F64201504627F0C2
:104CD0005BFC10B14FF0020918E06A4640F6430150
:104CE000504627F051FC10B14FF002090EE06A4621
:104CF00040F64901504627F047FC10B14FF0020939
:104D000004E0B9F1000F01D14FF0010900BF00BF6D
:104D10006D1C608CC0F3C500A8423FF68EAE4846BD
:104D20006BE7000001480068704700004C0100205C
:104D300070470146C1F30412072A00DD0722D0B2F2
:104D40007047000010B518210348FFF7DDFC012073
:104D500029F060FB10BD000060C300202DE9F04188
:104D600005460F4616460DB9BDE8F0812846FBF70B
:104D7000E1FC8046394628460A4A126890470746B1
:104D8000E8193146074A1268904706463C4603E058
:104D9000A019285C2855641CA8EB0600A042F7D295
:104DA00000BFE1E7E00200202DE9F04106460C4695
:104DB00017461D4629463046084A1268904720602B
:104DC000206830B1296888190021044A1268904788
:104DD00000E000203860BDE8F0810000D80200202B
:104DE0002DE9F04F87B004460F4692469846DDE91C
:104DF00010560DB1002028801CB9002007B0BDE876
:104E0000F08F207808B90020F8E70FB90020F5E707
:104E10004FF0000906F0020010B906F0040098B146
:104E2000002000E0401C215C0A2905D0215C0D29EE
:104E300002D0215C0029F5D1215C01B1401C15B1E3
:104E40004FF0FF312980D9E706F0020008B141F6A2
:104E5000FF7800200690059038E000200490059827
:104E600008B9012000E0002006A904AACDE90062EB
:104E7000CDE902100599601843465246394629F09B
:104E800063FD83460498A8EB00000FFA80F80498AD
:104E900048440FFA80F9BBF1000F00D11CE00598DF
:104EA0005844059020780A2802D020780D2800D197
:104EB00012E00598205C0A2803D00598205C0D2894
:104EC00003D10598401C059006E000BF0598205CC2
:104ED00010B1B8F1000FC0DC00BF059870B905A98A
:104EE0002046094A12689047834635B10022594648
:104EF00038461BF03AFE0FFA80F900BF0DB1A5F855
:104F0000009005987AE70000D80200202DE9F047CC
:104F100006468846174606B10FB9BDE8F087304609
:104F2000FBF708FC81463846FBF704FC044604B94D
:104F3000F3E704EB090A414630460B4A12689047F2
:104F40008046554603E0281B305C70556D1E08EB0B
:104F50000400A842F7D906EB0800224639461FF0A4
:104F60006EFF00BFD9E70000E002002002460020EB
:104F70000FA31B788B4211D113781BB90123137037
:104F800001200BE01378012B02D10023137005E000
:104F90001378022B02D10023137001201378012B08
:104FA00004D1202901D10223137001207047000091
:104FB0002300000073B582B0064603980190324684
:104FC00000210846019B29F0DBFF054600200190E7
:104FD0000024681C1FF096FC044600BF1CB900BFEB
:104FE00000BF00BFFEE700BF14B9002004B070BDD1
:104FF000002060553246691C2046039B29F0C0FF03
:105000002046F3E72DE9F04781460E4614461F4639
:10501000DDF820A035461BE0600800FB0755294657
:105020004846D047B0F1000809DD04F0010080F0E7
:105030000100C0EB5404E8190546064608E0B8F143
:10504000000F02DA6408354602E02846BDE8F08722
:10505000002CE1D10020F9E72DE9FF4F85B0834610
:10506000DDE9158ADDE91349DDE91775129E05F0C2
:105070000200F8B94FB105F0010030B1B9F1000FED
:1050800002D105F00C0000B17F1E03E03022204663
:10509000641C3254544501D2202CF7D303E0302253
:1050A0002046641C325405F0010018B1BC4201D204
:1050B000202CF4D305F01000B0B305F4806050B993
:1050C0004CB1544501D0BC4205D1641E1CB1B8F1AD
:1050D000100F00D1641EB8F1100F09D105F02000A7
:1050E00030B9202C04D278222046641C325415E0BA
:1050F000B8F1100F09D105F0200030B1202C04D2F6
:1051000058222046641C325408E0B8F1020F05D141
:10511000202C03D262222046641C3254202C03D25D
:1051200030222046641C3254202C16D2B9F1000FD4
:1051300004D02D222046641C32540EE005F00400F9
:1051400020B12B222046641C325406E005F00800F2
:1051500018B120222046641C3254CDE90275CDE9F5
:105160000064584606A90EC900F0A2F809B0BDE8CF
:10517000F08F2DE9FF4F8FB08046DDE91FABDDE9F1
:105180001D96219D1C9C00270CB925F0100505F4E7
:10519000806000B1E4B100BFB4FBF6F106FB114141
:1051A000C8B20A2802DA00F1300107E005F0200158
:1051B00009B1412100E0612101440A39CBB23946ED
:1051C0007F1C07AA5354B4FBF6F40CB1202FE3D391
:1051D00007A8CDE904AB8DE8810203960695404609
:1051E00010A90EC9FFF738FF13B0BDE8F08F2DE905
:1051F000FF4F8FB0DDE9217BDDF89080209EDDE957
:105200001C454FF00009002184EA01006940084371
:1052100001D128F0100808F4806028B1002184EA48
:105220000100694008432DD000BF32463B4620466E
:105230002946FBF76EF802F0FF0ABAF10A0F02DA0C
:105240000AF1300007E008F0200008B1412000E03A
:10525000612050440A38C2B2484609F1010907A941
:105260000A5432463B4620462946FBF752F804468C
:105270000D46002184EA01006940084302D0B9F1DB
:10528000200FD2D32398CDE9036BCDE9050807A9F8
:105290001E98CDE9001902900FA80FC8FFF7DCFE99
:1052A00013B0BDE8F08F9A4200D28854704770471F
:1052B0002DE9FF5F05461446DDE90EA6DDE91087FE
:1052C000A34607F0020078B907F0010060B9B146C3
:1052D00007E02246641C2020039B0199A84709F19E
:1052E0000109C145F5D300BF08E02246641C711EC8
:1052F0000E461AF80100039B0199A847002EF4D12D
:1053000007F0020050B105E02246641C2020039BF8
:105310000199A847A4EB0B004045F5D3204604B003
:10532000BDE8F09F00BF70472DE9FF4F8BB00746E7
:1053300000250C9800B9FA4FEAE20E98007825286B
:105340000AD02A466D1C0E990878DDE90C13B8477F
:105350000E98401C0E90DBE20E98401C0E9000242C
:1053600000BF0E9800782B2819D004DC20281ED00E
:1053700023282CD123E02D2809D0302827D144F030
:1053800001040E98401C0E9001200A9022E044F087
:1053900002040E98401C0E9001200A901AE044F07E
:1053A00004040E98401C0E9001200A9012E044F074
:1053B00008040E98401C0E9001200A900AE044F068
:1053C00010040E98401C0E9001200A9002E000206C
:1053D0000A9000BF00BF0A980028C2D180460E99EB
:1053E0000878FDF798FE20B10EA8FDF77FFE8046F5
:1053F00012E00E9800782A280ED1189901C9189148
:10540000002804DA44F00204C0F1000800E08046FD
:105410000E99491C0E9100BF4FF000090E980078BC
:105420002E281FD144F480640E98401C0E900E99D3
:105430000878FDF770FE20B10EA8FDF757FE8146F3
:1054400010E00E9800782A280CD1189901C91891FB
:10545000002801DD014600E0002189460E99491C23
:105460000E9100BF0E9800786C280AD004DC6828E2
:1054700016D06A2835D128E0742820D07A2830D177
:1054800029E044F480740E98401C0E900E98007829
:105490006C2804D144F400740E98401C0E9021E056
:1054A00044F080040E98401C0E900E9800786828F6
:1054B00004D144F040040E98401C0E9012E044F4D5
:1054C00080740E98401C0E900CE044F400740E980A
:1054D000401C0E9006E044F480740E98401C0E9020
:1054E00000E000BF00BF0E98007869281DD00EDCD8
:1054F000622821D006DC25287ED050281AD05828D2
:105500007BD115E0632879D06428F9D10CE07328A9
:1055100075D004DC6F280ED07028F1D109E0752811
:1055200004D07828ECD102E000BF00BF00BF00BF6C
:1055300000BF00BF00BF00BF0E980078782803D0DE
:105540000E980078582801D1102623E00E98007894
:10555000702803D00E98007850280CD1102644F003
:10556000100444F480740E984078562812D10E9896
:10557000401C0E900EE00E9800786F2801D108268E
:1055800008E00E980078622801D1022602E00A267F
:1055900024F010040E980078582803D00E98007854
:1055A000502801D144F020040E980078692805D0D5
:1055B0000E980078642801D024F00C0404F4806074
:1055C00008B124F001040E980078692803D00E98E1
:1055D000007864287CD104F40070B8B31898C01D1A
:1055E00020F007001890D0E900AB189A0832189202
:1055F0000020CDE9069803E073E17CE1F2E01CE1D4
:10560000CDE904600894BAEB00017BEB000001DAFD
:10561000012000E00020002102900846B1EB0A01C1
:1056200070EB0B0002DA5046594605E000200146B7
:10563000B0EB0A0061EB0B01CDE900012A463846C8
:10564000DDE90C13FFF7D3FD0546C7E0FFE704F4DF
:105650008070D0B1189850F804AB18904FEADA7007
:10566000CDE9039802960594BAF1000F01DD514689
:1056700001E0CAF10001CDE900102A463846DDE913
:105680000C13FFF776FD0546A8E004F0400028B1B2
:10569000189810F8041B1890C8B20DE004F08000B0
:1056A00028B1189830F8041B189008B204E0189834
:1056B00000681899091D189182464FEADA70CDE901
:1056C000039802960594BAF1000F02DD514602E0FC
:1056D0000BE0CAF10001CDE900102A463846DDE9A9
:1056E0000C13FFF746FD054678E00E980078562823
:1056F00018D1189850F804AB1890DAF80400006834
:10570000099009980090DAF800300D98421B0C9827
:1057100041193846FFF708FE0544002009905DE076
:10572000AF52000804F40070D0B11898C01D20F0EA
:105730000700CDE90698089418900020CDE9046090
:105740000290189903C9189A08321892CDE90001FD
:105750002A463846DDE90C13FFF749FD05463DE0D2
:1057600004F4807098B10022CDE903980296059464
:10577000189800681899091DCDE9000218912A4669
:105780003846DDE90C13FFF7F4FC054626E004F08B
:10579000400028B1189810F8041B1890C8B20DE00A
:1057A00004F0800028B1189830F8041B189088B2D3
:1057B00004E0189800681899091D18918246002085
:1057C000CDE900A0CDE90398029605942A46384613
:1057D000DDE90C13FFF7CDFC054600BF0E98401C19
:1057E0000E9093E0012604F0020050B905E02A462D
:1057F0006D1C2020DDE90C13B8473046761C40456F
:10580000F5D3189911F8043BD8B22A466D1C1891AB
:10581000DDE90C13B84704F0020050B105E02A4658
:105820006D1C2020DDE90C13B8473046761C40453E
:10583000F5D30E98401C0E9068E0189850F804AB11
:1058400018905046B9F1000F01D0494601E04FF0E1
:10585000FF310A46014600E0491C0B781BB1131EBC
:10586000A2F10102F8D10E1A04F4806028B14E456D
:1058700001D2304600E04846064604F0020050B926
:1058800005E02A466D1C2020DDE90C13B8473046A0
:10589000761C4045F5D306E01AF8010B2A466D1C2C
:1058A000DDE90C13B8479AF8000040B104F48060B9
:1058B0000028F1D0B9F10000A9F10109ECD104F000
:1058C000020050B105E02A466D1C2020DDE90C13D2
:1058D000B8473046761C4045F5D30E98401C0E90D4
:1058E00014E02A466D1C2520DDE90C13B8470E98FC
:1058F000401C0E900AE02A466D1C0E990878DDE9DE
:105900000C13B8470E98401C0E9000BF00BF00BF9C
:105910000E98007800287FF410AD0D98854201D2D2
:10592000284601E00D98401E02460020DDE90C13D8
:10593000B84728460FB0BDE8F08F2DE9F041044686
:105940000E46002774B13146204600F02DF805467A
:10595000B5F5802F05D20C2D01D9284600E00C208A
:10596000074600BF3846BDE8F081024600BF481E2A
:10597000084018B100BF00BF00BFFEE700BF481ECF
:105980001040101A704710B502464B1E13444C1EAF
:1059900023EA040000BF4B1E0B401BB100BF00BF39
:1059A00000BFFEE700BF10BD024600BF481E084012
:1059B00018B100BF00BF00BFFEE700BF481E104483
:1059C0004B1E9843704700002DE9F04180460E467B
:1059D000444601206086002500270DE056F8270088
:1059E00025A1FAF76DFF10B1681C85B202E0608E48
:1059F000401C6086781C87B256F8270020B156F804
:105A0000270000780028E9D1208EA84201D1BDE806
:105A1000F081A06A20B1A06A1FF042F80020A062C5
:105A2000E06A20B1E06A1FF03BF80020E062E80085
:105A30001EF068FFA06200BFA06A18B900BF00BFD7
:105A400000BFFEE700BF68001EF05CFFE06200BF21
:105A5000E06A18B900BF00BF00BFFEE700BFA06A40
:105A600008B1E06A00B900256900E06A1FF02DFA6C
:105A7000258600BFCBE700000A0000002DE9F84FA3
:105A800081460E46924699F8090000F00700022868
:105A900001D1304600E050468346564501DD304690
:105AA00000E050460746032000EB470020F00300CB
:105AB00000F110053948006839490968A0EB010870
:105AC000002405EB080037490968884206D23348AC
:105AD0000468606820F0004060603AE03148006887
